{
  "contractName": "TokenSwap",
  "abi": [
    {
      "inputs": [
        {
          "internalType": "contract ERC20",
          "name": "_token1",
          "type": "address"
        },
        {
          "internalType": "contract ERC20",
          "name": "_token2",
          "type": "address"
        },
        {
          "internalType": "uint256",
          "name": "_price",
          "type": "uint256"
        }
      ],
      "stateMutability": "nonpayable",
      "type": "constructor"
    },
    {
      "anonymous": false,
      "inputs": [
        {
          "indexed": true,
          "internalType": "address",
          "name": "previousOwner",
          "type": "address"
        },
        {
          "indexed": true,
          "internalType": "address",
          "name": "newOwner",
          "type": "address"
        }
      ],
      "name": "OwnershipTransferred",
      "type": "event"
    },
    {
      "inputs": [],
      "name": "owner",
      "outputs": [
        {
          "internalType": "address",
          "name": "",
          "type": "address"
        }
      ],
      "stateMutability": "view",
      "type": "function",
      "constant": true
    },
    {
      "inputs": [],
      "name": "price",
      "outputs": [
        {
          "internalType": "uint256",
          "name": "",
          "type": "uint256"
        }
      ],
      "stateMutability": "view",
      "type": "function",
      "constant": true
    },
    {
      "inputs": [],
      "name": "renounceOwnership",
      "outputs": [],
      "stateMutability": "nonpayable",
      "type": "function"
    },
    {
      "inputs": [
        {
          "internalType": "address",
          "name": "newOwner",
          "type": "address"
        }
      ],
      "name": "transferOwnership",
      "outputs": [],
      "stateMutability": "nonpayable",
      "type": "function"
    },
    {
      "inputs": [
        {
          "internalType": "uint256",
          "name": "_price",
          "type": "uint256"
        }
      ],
      "name": "updatePrice",
      "outputs": [],
      "stateMutability": "nonpayable",
      "type": "function"
    },
    {
      "inputs": [
        {
          "internalType": "contract ERC20",
          "name": "_token",
          "type": "address"
        },
        {
          "internalType": "uint256",
          "name": "amount",
          "type": "uint256"
        }
      ],
      "name": "deposit",
      "outputs": [],
      "stateMutability": "nonpayable",
      "type": "function"
    },
    {
      "inputs": [
        {
          "internalType": "contract ERC20",
          "name": "_token",
          "type": "address"
        },
        {
          "internalType": "uint256",
          "name": "amount",
          "type": "uint256"
        }
      ],
      "name": "exchange",
      "outputs": [],
      "stateMutability": "nonpayable",
      "type": "function"
    }
  ],
  "bytecode": "0x60806040523480156200001157600080fd5b5060405162001961380380620019618339818101604052810190620000379190620001e3565b620000576200004b620000e960201b60201c565b620000f160201b60201c565b82600160006101000a81548173ffffffffffffffffffffffffffffffffffffffff021916908373ffffffffffffffffffffffffffffffffffffffff16021790555081600260006101000a81548173ffffffffffffffffffffffffffffffffffffffff021916908373ffffffffffffffffffffffffffffffffffffffff16021790555080600381905550505050620002bf565b600033905090565b60008060009054906101000a900473ffffffffffffffffffffffffffffffffffffffff169050816000806101000a81548173ffffffffffffffffffffffffffffffffffffffff021916908373ffffffffffffffffffffffffffffffffffffffff1602179055508173ffffffffffffffffffffffffffffffffffffffff168173ffffffffffffffffffffffffffffffffffffffff167f8be0079c531659141344cd1fd0a4f28419497f9722a3daafe3b4186f6b6457e060405160405180910390a35050565b600081519050620001c6816200028b565b92915050565b600081519050620001dd81620002a5565b92915050565b600080600060608486031215620001f957600080fd5b60006200020986828701620001b5565b93505060206200021c86828701620001b5565b92505060406200022f86828701620001cc565b9150509250925092565b6000620002468262000261565b9050919050565b60006200025a8262000239565b9050919050565b600073ffffffffffffffffffffffffffffffffffffffff82169050919050565b6000819050919050565b62000296816200024d565b8114620002a257600080fd5b50565b620002b08162000281565b8114620002bc57600080fd5b50565b61169280620002cf6000396000f3fe608060405234801561001057600080fd5b506004361061007d5760003560e01c80638d6cc56d1161005b5780638d6cc56d146100c45780638da5cb5b146100e0578063a035b1fe146100fe578063f2fde38b1461011c5761007d565b8063045d03891461008257806347e7ef241461009e578063715018a6146100ba575b600080fd5b61009c60048036038101906100979190610e5c565b610138565b005b6100b860048036038101906100b39190610e5c565b610575565b005b6100c261083c565b005b6100de60048036038101906100d99190610e98565b6108c4565b005b6100e861094a565b6040516100f59190611026565b60405180910390f35b610106610973565b60405161011391906111aa565b60405180910390f35b61013660048036038101906101319190610e0a565b610979565b005b6000811161017b576040517f08c379a00000000000000000000000000000000000000000000000000000000081526004016101729061112a565b60405180910390fd5b8173ffffffffffffffffffffffffffffffffffffffff16600160009054906101000a900473ffffffffffffffffffffffffffffffffffffffff1673ffffffffffffffffffffffffffffffffffffffff1614158061022657508173ffffffffffffffffffffffffffffffffffffffff16600260009054906101000a900473ffffffffffffffffffffffffffffffffffffffff1673ffffffffffffffffffffffffffffffffffffffff1614155b610265576040517f08c379a000000000000000000000000000000000000000000000000000000000815260040161025c906110ea565b60405180910390fd5b808273ffffffffffffffffffffffffffffffffffffffff1663dd62ed3e33306040518363ffffffff1660e01b81526004016102a1929190611041565b60206040518083038186803b1580156102b957600080fd5b505afa1580156102cd573d6000803e3d6000fd5b505050506040513d601f19601f820116820180604052508101906102f19190610ec1565b1015610332576040517f08c379a00000000000000000000000000000000000000000000000000000000081526004016103299061110a565b60405180910390fd5b8173ffffffffffffffffffffffffffffffffffffffff166323b872dd3330846040518463ffffffff1660e01b815260040161036f9392919061106a565b602060405180830381600087803b15801561038957600080fd5b505af115801561039d573d6000803e3d6000fd5b505050506040513d601f19601f820116820180604052508101906103c19190610e33565b506000806103cf8484610a71565b91509150808273ffffffffffffffffffffffffffffffffffffffff166370a08231306040518263ffffffff1660e01b815260040161040d9190611026565b60206040518083038186803b15801561042557600080fd5b505afa158015610439573d6000803e3d6000fd5b505050506040513d601f19601f8201168201806040525081019061045d9190610ec1565b101561049e576040517f08c379a00000000000000000000000000000000000000000000000000000000081526004016104959061114a565b60405180910390fd5b600081116104e1576040517f08c379a00000000000000000000000000000000000000000000000000000000081526004016104d89061112a565b60405180910390fd5b8173ffffffffffffffffffffffffffffffffffffffff1663a9059cbb33836040518363ffffffff1660e01b815260040161051c9291906110a1565b602060405180830381600087803b15801561053657600080fd5b505af115801561054a573d6000803e3d6000fd5b505050506040513d601f19601f8201168201806040525081019061056e9190610e33565b5050505050565b61057d610cc0565b73ffffffffffffffffffffffffffffffffffffffff1661059b61094a565b73ffffffffffffffffffffffffffffffffffffffff16146105f1576040517f08c379a00000000000000000000000000000000000000000000000000000000081526004016105e89061116a565b60405180910390fd5b8173ffffffffffffffffffffffffffffffffffffffff16600160009054906101000a900473ffffffffffffffffffffffffffffffffffffffff1673ffffffffffffffffffffffffffffffffffffffff1614158061069c57508173ffffffffffffffffffffffffffffffffffffffff16600260009054906101000a900473ffffffffffffffffffffffffffffffffffffffff1673ffffffffffffffffffffffffffffffffffffffff1614155b6106db576040517f08c379a00000000000000000000000000000000000000000000000000000000081526004016106d29061118a565b60405180910390fd5b808273ffffffffffffffffffffffffffffffffffffffff1663dd62ed3e33306040518363ffffffff1660e01b8152600401610717929190611041565b60206040518083038186803b15801561072f57600080fd5b505afa158015610743573d6000803e3d6000fd5b505050506040513d601f19601f820116820180604052508101906107679190610ec1565b10156107a8576040517f08c379a000000000000000000000000000000000000000000000000000000000815260040161079f9061110a565b60405180910390fd5b8173ffffffffffffffffffffffffffffffffffffffff166323b872dd3330846040518463ffffffff1660e01b81526004016107e59392919061106a565b602060405180830381600087803b1580156107ff57600080fd5b505af1158015610813573d6000803e3d6000fd5b505050506040513d601f19601f820116820180604052508101906108379190610e33565b505050565b610844610cc0565b73ffffffffffffffffffffffffffffffffffffffff1661086261094a565b73ffffffffffffffffffffffffffffffffffffffff16146108b8576040517f08c379a00000000000000000000000000000000000000000000000000000000081526004016108af9061116a565b60405180910390fd5b6108c26000610cc8565b565b6108cc610cc0565b73ffffffffffffffffffffffffffffffffffffffff166108ea61094a565b73ffffffffffffffffffffffffffffffffffffffff1614610940576040517f08c379a00000000000000000000000000000000000000000000000000000000081526004016109379061116a565b60405180910390fd5b8060038190555050565b60008060009054906101000a900473ffffffffffffffffffffffffffffffffffffffff16905090565b60035481565b610981610cc0565b73ffffffffffffffffffffffffffffffffffffffff1661099f61094a565b73ffffffffffffffffffffffffffffffffffffffff16146109f5576040517f08c379a00000000000000000000000000000000000000000000000000000000081526004016109ec9061116a565b60405180910390fd5b600073ffffffffffffffffffffffffffffffffffffffff168173ffffffffffffffffffffffffffffffffffffffff161415610a65576040517f08c379a0000000000000000000000000000000000000000000000000000000008152600401610a5c906110ca565b60405180910390fd5b610a6e81610cc8565b50565b6000808373ffffffffffffffffffffffffffffffffffffffff16600160009054906101000a900473ffffffffffffffffffffffffffffffffffffffff1673ffffffffffffffffffffffffffffffffffffffff161415610b9857600260009054906101000a900473ffffffffffffffffffffffffffffffffffffffff1691506003548473ffffffffffffffffffffffffffffffffffffffff1663313ce5676040518163ffffffff1660e01b815260040160206040518083038186803b158015610b3857600080fd5b505afa158015610b4c573d6000803e3d6000fd5b505050506040513d601f19601f82011682018060405250810190610b709190610eea565b600a610b7c919061125a565b84610b879190611378565b610b9191906111d6565b9050610cb9565b8373ffffffffffffffffffffffffffffffffffffffff16600260009054906101000a900473ffffffffffffffffffffffffffffffffffffffff1673ffffffffffffffffffffffffffffffffffffffff161415610cb857600160009054906101000a900473ffffffffffffffffffffffffffffffffffffffff1691508373ffffffffffffffffffffffffffffffffffffffff1663313ce5676040518163ffffffff1660e01b815260040160206040518083038186803b158015610c5957600080fd5b505afa158015610c6d573d6000803e3d6000fd5b505050506040513d601f19601f82011682018060405250810190610c919190610eea565b600a610c9d919061125a565b60035484610cab9190611378565b610cb591906111d6565b90505b5b9250929050565b600033905090565b60008060009054906101000a900473ffffffffffffffffffffffffffffffffffffffff169050816000806101000a81548173ffffffffffffffffffffffffffffffffffffffff021916908373ffffffffffffffffffffffffffffffffffffffff1602179055508173ffffffffffffffffffffffffffffffffffffffff168173ffffffffffffffffffffffffffffffffffffffff167f8be0079c531659141344cd1fd0a4f28419497f9722a3daafe3b4186f6b6457e060405160405180910390a35050565b600081359050610d9b816115e9565b92915050565b600081519050610db081611600565b92915050565b600081359050610dc581611617565b92915050565b600081359050610dda8161162e565b92915050565b600081519050610def8161162e565b92915050565b600081519050610e0481611645565b92915050565b600060208284031215610e1c57600080fd5b6000610e2a84828501610d8c565b91505092915050565b600060208284031215610e4557600080fd5b6000610e5384828501610da1565b91505092915050565b60008060408385031215610e6f57600080fd5b6000610e7d85828601610db6565b9250506020610e8e85828601610dcb565b9150509250929050565b600060208284031215610eaa57600080fd5b6000610eb884828501610dcb565b91505092915050565b600060208284031215610ed357600080fd5b6000610ee184828501610de0565b91505092915050565b600060208284031215610efc57600080fd5b6000610f0a84828501610df5565b91505092915050565b610f1c816113d2565b82525050565b6000610f2f6026836111c5565b9150610f3a826114a4565b604082019050919050565b6000610f526015836111c5565b9150610f5d826114f3565b602082019050919050565b6000610f756018836111c5565b9150610f808261151c565b602082019050919050565b6000610f986014836111c5565b9150610fa382611545565b602082019050919050565b6000610fbb6016836111c5565b9150610fc68261156e565b602082019050919050565b6000610fde6020836111c5565b9150610fe982611597565b602082019050919050565b60006110016014836111c5565b915061100c826115c0565b602082019050919050565b61102081611422565b82525050565b600060208201905061103b6000830184610f13565b92915050565b60006040820190506110566000830185610f13565b6110636020830184610f13565b9392505050565b600060608201905061107f6000830186610f13565b61108c6020830185610f13565b6110996040830184611017565b949350505050565b60006040820190506110b66000830185610f13565b6110c36020830184611017565b9392505050565b600060208201905081810360008301526110e381610f22565b9050919050565b6000602082019050818103600083015261110381610f45565b9050919050565b6000602082019050818103600083015261112381610f68565b9050919050565b6000602082019050818103600083015261114381610f8b565b9050919050565b6000602082019050818103600083015261116381610fae565b9050919050565b6000602082019050818103600083015261118381610fd1565b9050919050565b600060208201905081810360008301526111a381610ff4565b9050919050565b60006020820190506111bf6000830184611017565b92915050565b600082825260208201905092915050565b60006111e182611422565b91506111ec83611422565b9250826111fc576111fb611468565b5b828204905092915050565b6000808291508390505b60018511156112515780860481111561122d5761122c611439565b5b600185161561123c5780820291505b808102905061124a85611497565b9450611211565b94509492505050565b600061126582611422565b91506112708361142c565b925061129d7fffffffffffffffffffffffffffffffffffffffffffffffffffffffffffffffff84846112a5565b905092915050565b6000826112b55760019050611371565b816112c35760009050611371565b81600181146112d957600281146112e357611312565b6001915050611371565b60ff8411156112f5576112f4611439565b5b8360020a91508482111561130c5761130b611439565b5b50611371565b5060208310610133831016604e8410600b84101617156113475782820a90508381111561134257611341611439565b5b611371565b6113548484846001611207565b9250905081840481111561136b5761136a611439565b5b81810290505b9392505050565b600061138382611422565b915061138e83611422565b9250817fffffffffffffffffffffffffffffffffffffffffffffffffffffffffffffffff04831182151516156113c7576113c6611439565b5b828202905092915050565b60006113dd82611402565b9050919050565b60008115159050919050565b60006113fb826113d2565b9050919050565b600073ffffffffffffffffffffffffffffffffffffffff82169050919050565b6000819050919050565b600060ff82169050919050565b7f4e487b7100000000000000000000000000000000000000000000000000000000600052601160045260246000fd5b7f4e487b7100000000000000000000000000000000000000000000000000000000600052601260045260246000fd5b60008160011c9050919050565b7f4f776e61626c653a206e6577206f776e657220697320746865207a65726f206160008201527f6464726573730000000000000000000000000000000000000000000000000000602082015250565b7f45786368616e6765206e6f7420616c6c6f776564210000000000000000000000600082015250565b7f455243323020616c6c6f77616e636520746f6f206c6f77210000000000000000600082015250565b7f5377617020616d6f756e7420746f6f206c6f7721000000000000000000000000600082015250565b7f45524332302062616c616e636520746f6f206c6f772100000000000000000000600082015250565b7f4f776e61626c653a2063616c6c6572206973206e6f7420746865206f776e6572600082015250565b7f4465706f736974206e6f7420616c6c6f77656421000000000000000000000000600082015250565b6115f2816113d2565b81146115fd57600080fd5b50565b611609816113e4565b811461161457600080fd5b50565b611620816113f0565b811461162b57600080fd5b50565b61163781611422565b811461164257600080fd5b50565b61164e8161142c565b811461165957600080fd5b5056fea2646970667358221220f9d44a3508c2d6dd34659e2f3e731ac0bb47f5e98cd922adca6c10babdd7a59b64736f6c63430008010033",
  "immutableReferences": {},
  "source": "// contracts/Days365.sol\r\n// SPDX-License-Identifier: MIT\r\npragma solidity ^0.8.1;\r\n\r\nimport \"@openzeppelin/contracts/token/ERC20/ERC20.sol\";\r\nimport \"@openzeppelin/contracts/access/Ownable.sol\";\r\n\r\ncontract TokenSwap is Ownable {\r\n    ERC20 private token1;\r\n    ERC20 private token2;\r\n    uint public price;\r\n\r\n    constructor(ERC20 _token1, ERC20 _token2, uint _price)\r\n    {\r\n        token1 = _token1;\r\n        token2 = _token2;\r\n        price = _price;\r\n    }\r\n\r\n    function updatePrice(uint _price) public onlyOwner\r\n    {\r\n        price = _price;\r\n    }\r\n\r\n    function deposit(ERC20 _token, uint amount) public onlyOwner \r\n    {\r\n        require(address(token1) != address(_token) || address(token2) != address(_token), \"Deposit not allowed!\");\r\n        require(_token.allowance(msg.sender, address(this)) >= amount, \"ERC20 allowance too low!\");\r\n\r\n        _token.transferFrom(msg.sender, address(this), amount);\r\n    }\r\n\r\n    function exchange(ERC20 _token, uint amount) public \r\n    {\r\n        require(amount > 0, \"Swap amount too low!\");\r\n        require(address(token1) != address(_token) || address(token2) != address(_token), \"Exchange not allowed!\");\r\n        require(_token.allowance(msg.sender, address(this)) >= amount, \"ERC20 allowance too low!\");\r\n        _token.transferFrom(msg.sender, address(this), amount);\r\n\r\n        (ERC20 tokenOutput, uint outputAmount) = getSwapAmount(_token, amount);\r\n        require(tokenOutput.balanceOf(address(this)) >= outputAmount, \"ERC20 balance too low!\");\r\n        require(outputAmount > 0, \"Swap amount too low!\");\r\n\r\n        tokenOutput.transfer(msg.sender, outputAmount);\r\n    }\r\n\r\n    function getSwapAmount(ERC20 _token, uint inputAmount) internal view returns(ERC20 tokenOutput, uint outputAmount)\r\n    {\r\n        if(address(token1) == address(_token)) {\r\n            tokenOutput = token2;\r\n            outputAmount = inputAmount * 10**_token.decimals() / price;\r\n        }\r\n        else if (address(token2) == address(_token)) {\r\n            tokenOutput = token1;\r\n            outputAmount = inputAmount * price / 10**_token.decimals();\r\n        }\r\n\r\n        return (\r\n            tokenOutput,\r\n            outputAmount\r\n        );\r\n    }\r\n}",
  "sourcePath": "E:\\Users\\adria\\Ether\\TokenSwap\\contracts\\TokenSwap.sol",
  "compiler": {
    "name": "solc",
    "version": "0.8.1+commit.df193b15.Emscripten.clang"
  },
  "schemaVersion": "3.4.5",
  "updatedAt": "2022-03-23T20:45:03.212Z",
  "networkType": "ethereum",
  "devdoc": {
    "kind": "dev",
    "methods": {
      "owner()": {
        "details": "Returns the address of the current owner."
      },
      "renounceOwnership()": {
        "details": "Leaves the contract without owner. It will not be possible to call `onlyOwner` functions anymore. Can only be called by the current owner. NOTE: Renouncing ownership will leave the contract without an owner, thereby removing any functionality that is only available to the owner."
      },
      "transferOwnership(address)": {
        "details": "Transfers ownership of the contract to a new account (`newOwner`). Can only be called by the current owner."
      }
    },
    "version": 1
  },
  "userdoc": {
    "kind": "user",
    "methods": {},
    "version": 1
  }
}