{
  "contractName": "TokenSwap",
  "abi": [
    {
      "inputs": [
        {
          "internalType": "contract ERC20",
          "name": "_token1",
          "type": "address"
        },
        {
          "internalType": "contract ERC20",
          "name": "_token2",
          "type": "address"
        },
        {
          "internalType": "uint256",
          "name": "_price",
          "type": "uint256"
        }
      ],
      "stateMutability": "nonpayable",
      "type": "constructor"
    },
    {
      "anonymous": false,
      "inputs": [
        {
          "indexed": true,
          "internalType": "address",
          "name": "previousOwner",
          "type": "address"
        },
        {
          "indexed": true,
          "internalType": "address",
          "name": "newOwner",
          "type": "address"
        }
      ],
      "name": "OwnershipTransferred",
      "type": "event"
    },
    {
      "inputs": [],
      "name": "owner",
      "outputs": [
        {
          "internalType": "address",
          "name": "",
          "type": "address"
        }
      ],
      "stateMutability": "view",
      "type": "function"
    },
    {
      "inputs": [],
      "name": "price",
      "outputs": [
        {
          "internalType": "uint256",
          "name": "",
          "type": "uint256"
        }
      ],
      "stateMutability": "view",
      "type": "function"
    },
    {
      "inputs": [],
      "name": "renounceOwnership",
      "outputs": [],
      "stateMutability": "nonpayable",
      "type": "function"
    },
    {
      "inputs": [
        {
          "internalType": "address",
          "name": "newOwner",
          "type": "address"
        }
      ],
      "name": "transferOwnership",
      "outputs": [],
      "stateMutability": "nonpayable",
      "type": "function"
    },
    {
      "inputs": [
        {
          "internalType": "uint256",
          "name": "_price",
          "type": "uint256"
        }
      ],
      "name": "updatePrice",
      "outputs": [],
      "stateMutability": "nonpayable",
      "type": "function"
    },
    {
      "inputs": [
        {
          "internalType": "contract ERC20",
          "name": "_token",
          "type": "address"
        },
        {
          "internalType": "uint256",
          "name": "amount",
          "type": "uint256"
        }
      ],
      "name": "deposit",
      "outputs": [],
      "stateMutability": "nonpayable",
      "type": "function"
    },
    {
      "inputs": [
        {
          "internalType": "contract ERC20",
          "name": "_token",
          "type": "address"
        },
        {
          "internalType": "uint256",
          "name": "amount",
          "type": "uint256"
        }
      ],
      "name": "exchange",
      "outputs": [],
      "stateMutability": "nonpayable",
      "type": "function"
    },
    {
      "inputs": [
        {
          "internalType": "contract ERC20",
          "name": "_token",
          "type": "address"
        },
        {
          "internalType": "uint256",
          "name": "inputAmount",
          "type": "uint256"
        }
      ],
      "name": "getSwapAmount",
      "outputs": [
        {
          "internalType": "contract ERC20",
          "name": "tokenOutput",
          "type": "address"
        },
        {
          "internalType": "uint256",
          "name": "outputAmount",
          "type": "uint256"
        }
      ],
      "stateMutability": "view",
      "type": "function"
    }
  ],
  "bytecode": "0x60806040523480156200001157600080fd5b50604051620019f5380380620019f58339818101604052810190620000379190620001e3565b620000576200004b620000e960201b60201c565b620000f160201b60201c565b82600160006101000a81548173ffffffffffffffffffffffffffffffffffffffff021916908373ffffffffffffffffffffffffffffffffffffffff16021790555081600260006101000a81548173ffffffffffffffffffffffffffffffffffffffff021916908373ffffffffffffffffffffffffffffffffffffffff16021790555080600381905550505050620002bf565b600033905090565b60008060009054906101000a900473ffffffffffffffffffffffffffffffffffffffff169050816000806101000a81548173ffffffffffffffffffffffffffffffffffffffff021916908373ffffffffffffffffffffffffffffffffffffffff1602179055508173ffffffffffffffffffffffffffffffffffffffff168173ffffffffffffffffffffffffffffffffffffffff167f8be0079c531659141344cd1fd0a4f28419497f9722a3daafe3b4186f6b6457e060405160405180910390a35050565b600081519050620001c6816200028b565b92915050565b600081519050620001dd81620002a5565b92915050565b600080600060608486031215620001f957600080fd5b60006200020986828701620001b5565b93505060206200021c86828701620001b5565b92505060406200022f86828701620001cc565b9150509250925092565b6000620002468262000261565b9050919050565b60006200025a8262000239565b9050919050565b600073ffffffffffffffffffffffffffffffffffffffff82169050919050565b6000819050919050565b62000296816200024d565b8114620002a257600080fd5b50565b620002b08162000281565b8114620002bc57600080fd5b50565b61172680620002cf6000396000f3fe608060405234801561001057600080fd5b50600436106100885760003560e01c80638d6cc56d1161005b5780638d6cc56d146101005780638da5cb5b1461011c578063a035b1fe1461013a578063f2fde38b1461015857610088565b8063045d03891461008d5780631befa6db146100a957806347e7ef24146100da578063715018a6146100f6575b600080fd5b6100a760048036038101906100a29190610e94565b610174565b005b6100c360048036038101906100be9190610e94565b6105af565b6040516100d1929190611111565b60405180910390f35b6100f460048036038101906100ef9190610e94565b6107fe565b005b6100fe610ac3565b005b61011a60048036038101906101159190610ed0565b610b4b565b005b610124610bd1565b604051610131919061106d565b60405180910390f35b610142610bfa565b60405161014f919061121a565b60405180910390f35b610172600480360381019061016d9190610e42565b610c00565b005b600081116101b7576040517f08c379a00000000000000000000000000000000000000000000000000000000081526004016101ae9061119a565b60405180910390fd5b8173ffffffffffffffffffffffffffffffffffffffff16600160009054906101000a900473ffffffffffffffffffffffffffffffffffffffff1673ffffffffffffffffffffffffffffffffffffffff16148061026057508173ffffffffffffffffffffffffffffffffffffffff16600260009054906101000a900473ffffffffffffffffffffffffffffffffffffffff1673ffffffffffffffffffffffffffffffffffffffff16145b61029f576040517f08c379a00000000000000000000000000000000000000000000000000000000081526004016102969061115a565b60405180910390fd5b808273ffffffffffffffffffffffffffffffffffffffff1663dd62ed3e33306040518363ffffffff1660e01b81526004016102db929190611088565b60206040518083038186803b1580156102f357600080fd5b505afa158015610307573d6000803e3d6000fd5b505050506040513d601f19601f8201168201806040525081019061032b9190610ef9565b101561036c576040517f08c379a00000000000000000000000000000000000000000000000000000000081526004016103639061117a565b60405180910390fd5b8173ffffffffffffffffffffffffffffffffffffffff166323b872dd3330846040518463ffffffff1660e01b81526004016103a9939291906110b1565b602060405180830381600087803b1580156103c357600080fd5b505af11580156103d7573d6000803e3d6000fd5b505050506040513d601f19601f820116820180604052508101906103fb9190610e6b565b5060008061040984846105af565b91509150808273ffffffffffffffffffffffffffffffffffffffff166370a08231306040518263ffffffff1660e01b8152600401610447919061106d565b60206040518083038186803b15801561045f57600080fd5b505afa158015610473573d6000803e3d6000fd5b505050506040513d601f19601f820116820180604052508101906104979190610ef9565b10156104d8576040517f08c379a00000000000000000000000000000000000000000000000000000000081526004016104cf906111ba565b60405180910390fd5b6000811161051b576040517f08c379a00000000000000000000000000000000000000000000000000000000081526004016105129061119a565b60405180910390fd5b8173ffffffffffffffffffffffffffffffffffffffff1663a9059cbb33836040518363ffffffff1660e01b81526004016105569291906110e8565b602060405180830381600087803b15801561057057600080fd5b505af1158015610584573d6000803e3d6000fd5b505050506040513d601f19601f820116820180604052508101906105a89190610e6b565b5050505050565b6000808373ffffffffffffffffffffffffffffffffffffffff16600160009054906101000a900473ffffffffffffffffffffffffffffffffffffffff1673ffffffffffffffffffffffffffffffffffffffff1614156106d657600260009054906101000a900473ffffffffffffffffffffffffffffffffffffffff1691506003548473ffffffffffffffffffffffffffffffffffffffff1663313ce5676040518163ffffffff1660e01b815260040160206040518083038186803b15801561067657600080fd5b505afa15801561068a573d6000803e3d6000fd5b505050506040513d601f19601f820116820180604052508101906106ae9190610f22565b600a6106ba91906112ca565b846106c591906113e8565b6106cf9190611246565b90506107f7565b8373ffffffffffffffffffffffffffffffffffffffff16600260009054906101000a900473ffffffffffffffffffffffffffffffffffffffff1673ffffffffffffffffffffffffffffffffffffffff1614156107f657600160009054906101000a900473ffffffffffffffffffffffffffffffffffffffff1691508373ffffffffffffffffffffffffffffffffffffffff1663313ce5676040518163ffffffff1660e01b815260040160206040518083038186803b15801561079757600080fd5b505afa1580156107ab573d6000803e3d6000fd5b505050506040513d601f19601f820116820180604052508101906107cf9190610f22565b600a6107db91906112ca565b600354846107e991906113e8565b6107f39190611246565b90505b5b9250929050565b610806610cf8565b73ffffffffffffffffffffffffffffffffffffffff16610824610bd1565b73ffffffffffffffffffffffffffffffffffffffff161461087a576040517f08c379a0000000000000000000000000000000000000000000000000000000008152600401610871906111da565b60405180910390fd5b8173ffffffffffffffffffffffffffffffffffffffff16600160009054906101000a900473ffffffffffffffffffffffffffffffffffffffff1673ffffffffffffffffffffffffffffffffffffffff16148061092357508173ffffffffffffffffffffffffffffffffffffffff16600260009054906101000a900473ffffffffffffffffffffffffffffffffffffffff1673ffffffffffffffffffffffffffffffffffffffff16145b610962576040517f08c379a0000000000000000000000000000000000000000000000000000000008152600401610959906111fa565b60405180910390fd5b808273ffffffffffffffffffffffffffffffffffffffff1663dd62ed3e33306040518363ffffffff1660e01b815260040161099e929190611088565b60206040518083038186803b1580156109b657600080fd5b505afa1580156109ca573d6000803e3d6000fd5b505050506040513d601f19601f820116820180604052508101906109ee9190610ef9565b1015610a2f576040517f08c379a0000000000000000000000000000000000000000000000000000000008152600401610a269061117a565b60405180910390fd5b8173ffffffffffffffffffffffffffffffffffffffff166323b872dd3330846040518463ffffffff1660e01b8152600401610a6c939291906110b1565b602060405180830381600087803b158015610a8657600080fd5b505af1158015610a9a573d6000803e3d6000fd5b505050506040513d601f19601f82011682018060405250810190610abe9190610e6b565b505050565b610acb610cf8565b73ffffffffffffffffffffffffffffffffffffffff16610ae9610bd1565b73ffffffffffffffffffffffffffffffffffffffff1614610b3f576040517f08c379a0000000000000000000000000000000000000000000000000000000008152600401610b36906111da565b60405180910390fd5b610b496000610d00565b565b610b53610cf8565b73ffffffffffffffffffffffffffffffffffffffff16610b71610bd1565b73ffffffffffffffffffffffffffffffffffffffff1614610bc7576040517f08c379a0000000000000000000000000000000000000000000000000000000008152600401610bbe906111da565b60405180910390fd5b8060038190555050565b60008060009054906101000a900473ffffffffffffffffffffffffffffffffffffffff16905090565b60035481565b610c08610cf8565b73ffffffffffffffffffffffffffffffffffffffff16610c26610bd1565b73ffffffffffffffffffffffffffffffffffffffff1614610c7c576040517f08c379a0000000000000000000000000000000000000000000000000000000008152600401610c73906111da565b60405180910390fd5b600073ffffffffffffffffffffffffffffffffffffffff168173ffffffffffffffffffffffffffffffffffffffff161415610cec576040517f08c379a0000000000000000000000000000000000000000000000000000000008152600401610ce39061113a565b60405180910390fd5b610cf581610d00565b50565b600033905090565b60008060009054906101000a900473ffffffffffffffffffffffffffffffffffffffff169050816000806101000a81548173ffffffffffffffffffffffffffffffffffffffff021916908373ffffffffffffffffffffffffffffffffffffffff1602179055508173ffffffffffffffffffffffffffffffffffffffff168173ffffffffffffffffffffffffffffffffffffffff167f8be0079c531659141344cd1fd0a4f28419497f9722a3daafe3b4186f6b6457e060405160405180910390a35050565b600081359050610dd38161167d565b92915050565b600081519050610de881611694565b92915050565b600081359050610dfd816116ab565b92915050565b600081359050610e12816116c2565b92915050565b600081519050610e27816116c2565b92915050565b600081519050610e3c816116d9565b92915050565b600060208284031215610e5457600080fd5b6000610e6284828501610dc4565b91505092915050565b600060208284031215610e7d57600080fd5b6000610e8b84828501610dd9565b91505092915050565b60008060408385031215610ea757600080fd5b6000610eb585828601610dee565b9250506020610ec685828601610e03565b9150509250929050565b600060208284031215610ee257600080fd5b6000610ef084828501610e03565b91505092915050565b600060208284031215610f0b57600080fd5b6000610f1984828501610e18565b91505092915050565b600060208284031215610f3457600080fd5b6000610f4284828501610e2d565b91505092915050565b610f5481611442565b82525050565b610f63816114a9565b82525050565b6000610f76602683611235565b9150610f8182611538565b604082019050919050565b6000610f99601583611235565b9150610fa482611587565b602082019050919050565b6000610fbc601883611235565b9150610fc7826115b0565b602082019050919050565b6000610fdf601483611235565b9150610fea826115d9565b602082019050919050565b6000611002601683611235565b915061100d82611602565b602082019050919050565b6000611025602083611235565b91506110308261162b565b602082019050919050565b6000611048601483611235565b915061105382611654565b602082019050919050565b61106781611492565b82525050565b60006020820190506110826000830184610f4b565b92915050565b600060408201905061109d6000830185610f4b565b6110aa6020830184610f4b565b9392505050565b60006060820190506110c66000830186610f4b565b6110d36020830185610f4b565b6110e0604083018461105e565b949350505050565b60006040820190506110fd6000830185610f4b565b61110a602083018461105e565b9392505050565b60006040820190506111266000830185610f5a565b611133602083018461105e565b9392505050565b6000602082019050818103600083015261115381610f69565b9050919050565b6000602082019050818103600083015261117381610f8c565b9050919050565b6000602082019050818103600083015261119381610faf565b9050919050565b600060208201905081810360008301526111b381610fd2565b9050919050565b600060208201905081810360008301526111d381610ff5565b9050919050565b600060208201905081810360008301526111f381611018565b9050919050565b600060208201905081810360008301526112138161103b565b9050919050565b600060208201905061122f600083018461105e565b92915050565b600082825260208201905092915050565b600061125182611492565b915061125c83611492565b92508261126c5761126b6114fc565b5b828204905092915050565b6000808291508390505b60018511156112c15780860481111561129d5761129c6114cd565b5b60018516156112ac5780820291505b80810290506112ba8561152b565b9450611281565b94509492505050565b60006112d582611492565b91506112e08361149c565b925061130d7fffffffffffffffffffffffffffffffffffffffffffffffffffffffffffffffff8484611315565b905092915050565b60008261132557600190506113e1565b8161133357600090506113e1565b8160018114611349576002811461135357611382565b60019150506113e1565b60ff841115611365576113646114cd565b5b8360020a91508482111561137c5761137b6114cd565b5b506113e1565b5060208310610133831016604e8410600b84101617156113b75782820a9050838111156113b2576113b16114cd565b5b6113e1565b6113c48484846001611277565b925090508184048111156113db576113da6114cd565b5b81810290505b9392505050565b60006113f382611492565b91506113fe83611492565b9250817fffffffffffffffffffffffffffffffffffffffffffffffffffffffffffffffff0483118215151615611437576114366114cd565b5b828202905092915050565b600061144d82611472565b9050919050565b60008115159050919050565b600061146b82611442565b9050919050565b600073ffffffffffffffffffffffffffffffffffffffff82169050919050565b6000819050919050565b600060ff82169050919050565b60006114b4826114bb565b9050919050565b60006114c682611472565b9050919050565b7f4e487b7100000000000000000000000000000000000000000000000000000000600052601160045260246000fd5b7f4e487b7100000000000000000000000000000000000000000000000000000000600052601260045260246000fd5b60008160011c9050919050565b7f4f776e61626c653a206e6577206f776e657220697320746865207a65726f206160008201527f6464726573730000000000000000000000000000000000000000000000000000602082015250565b7f45786368616e6765206e6f7420616c6c6f776564210000000000000000000000600082015250565b7f455243323020616c6c6f77616e636520746f6f206c6f77210000000000000000600082015250565b7f5377617020616d6f756e7420746f6f206c6f7721000000000000000000000000600082015250565b7f45524332302062616c616e636520746f6f206c6f772100000000000000000000600082015250565b7f4f776e61626c653a2063616c6c6572206973206e6f7420746865206f776e6572600082015250565b7f4465706f736974206e6f7420616c6c6f77656421000000000000000000000000600082015250565b61168681611442565b811461169157600080fd5b50565b61169d81611454565b81146116a857600080fd5b50565b6116b481611460565b81146116bf57600080fd5b50565b6116cb81611492565b81146116d657600080fd5b50565b6116e28161149c565b81146116ed57600080fd5b5056fea2646970667358221220d87eda71c0da85b23c6d8affbb4fdb3a6fda1f87703f6882b08545f1014334dc64736f6c63430008010033",
  "immutableReferences": {},
  "source": "// contracts/Days365.sol\r\n// SPDX-License-Identifier: MIT\r\npragma solidity ^0.8.1;\r\n\r\nimport \"@openzeppelin/contracts/token/ERC20/ERC20.sol\";\r\nimport \"@openzeppelin/contracts/access/Ownable.sol\";\r\n\r\ncontract TokenSwap is Ownable {\r\n    ERC20 private token1;\r\n    ERC20 private token2;\r\n    uint public price;\r\n\r\n    constructor(ERC20 _token1, ERC20 _token2, uint _price)\r\n    {\r\n        token1 = _token1;\r\n        token2 = _token2;\r\n        price = _price;\r\n    }\r\n\r\n    function updatePrice(uint _price) public onlyOwner\r\n    {\r\n        price = _price;\r\n    }\r\n\r\n    function deposit(ERC20 _token, uint amount) public onlyOwner \r\n    {\r\n        require(address(token1) == address(_token) || address(token2) == address(_token), \"Deposit not allowed!\");\r\n        require(_token.allowance(msg.sender, address(this)) >= amount, \"ERC20 allowance too low!\");\r\n\r\n        _token.transferFrom(msg.sender, address(this), amount);\r\n    }\r\n\r\n    function exchange(ERC20 _token, uint amount) public \r\n    {\r\n        require(amount > 0, \"Swap amount too low!\");\r\n        require(address(token1) == address(_token) || address(token2) == address(_token), \"Exchange not allowed!\");\r\n        require(_token.allowance(msg.sender, address(this)) >= amount, \"ERC20 allowance too low!\");\r\n        _token.transferFrom(msg.sender, address(this), amount);\r\n\r\n        (ERC20 tokenOutput, uint outputAmount) = getSwapAmount(_token, amount);\r\n        require(tokenOutput.balanceOf(address(this)) >= outputAmount, \"ERC20 balance too low!\");\r\n        require(outputAmount > 0, \"Swap amount too low!\");\r\n\r\n        tokenOutput.transfer(msg.sender, outputAmount);\r\n    }\r\n\r\n    function getSwapAmount(ERC20 _token, uint inputAmount) public view returns(ERC20 tokenOutput, uint outputAmount)\r\n    {\r\n        if(address(token1) == address(_token)) {\r\n            tokenOutput = token2;\r\n            outputAmount = inputAmount * 10**_token.decimals() / price;\r\n        }\r\n        else if (address(token2) == address(_token)) {\r\n            tokenOutput = token1;\r\n            outputAmount = inputAmount * price / 10**_token.decimals();\r\n        }\r\n\r\n        return (\r\n            tokenOutput,\r\n            outputAmount\r\n        );\r\n    }\r\n}",
  "sourcePath": "E:\\Users\\adria\\Ether\\TokenSwap\\contracts\\TokenSwap.sol",
  "compiler": {
    "name": "solc",
    "version": "0.8.1+commit.df193b15.Emscripten.clang"
  },
  "schemaVersion": "3.4.6",
  "updatedAt": "2022-03-26T16:38:14.828Z",
  "devdoc": {
    "kind": "dev",
    "methods": {
      "owner()": {
        "details": "Returns the address of the current owner."
      },
      "renounceOwnership()": {
        "details": "Leaves the contract without owner. It will not be possible to call `onlyOwner` functions anymore. Can only be called by the current owner. NOTE: Renouncing ownership will leave the contract without an owner, thereby removing any functionality that is only available to the owner."
      },
      "transferOwnership(address)": {
        "details": "Transfers ownership of the contract to a new account (`newOwner`). Can only be called by the current owner."
      }
    },
    "version": 1
  },
  "userdoc": {
    "kind": "user",
    "methods": {},
    "version": 1
  }
}